:10000000FB2900308A000408840A8207003478340F
:100010002D3449344D34553433342D345334413434
:100020002D344C3469346734683474342034763475
:0E00300031342E3430342E3431340A3400345E
:10012200C0004008D000AF200800C0004008B00066
:10013200630030100800C100A62841088400012095
:1001420091200130FF007F08C1074108840001208F
:10015200003A031DAD28AE289E280800D0000A30C0
:10016200CF008710BB280708FD39501802388700D6
:100172000314D00C0830CE00CE0BBD28CF0BB42810
:100182000800C401C501401CC728C828CE2842085F
:10019200C4070318C50A4308C50701300310C20D7E
:1001A200C30DFF3E031DCF2801300310C10CC00C4C
:1001B200FF3E031DD62840084104031DE128E22822
:1001C200C4284508C1004408C00008004008410492
:1001D2000319EC28ED281C29C401C40AFB280130AC
:1001E2000310C00DC10DFF3E031DF1280130FF00B9
:1001F2007F08C407C11FFE28FF28F02841084302D8
:10020200031D052940084202031C082909290F2958
:100212004008C2024108031CC303C3020130031099
:10022200C10CC00CFF3E031D10290130C402031D86
:100232001B291C29FF284308C1004208C0000800EE
:10024200C401C5014008410403192829292960294C
:10025200C601C60A372901300310C00DC10DFF3E89
:10026200031D2D290130FF007F08C607C11F3A294F
:100272003B292C2901300310C40DC50DFF3E031D7F
:100282003C2941084302031D482940084202031C3D
:100292004B294C2953294008C2024108031CC303BD
:1002A200C302441401300310C10CC00CFF3E031DF5
:1002B20054290130C602031D5F2960293B294508E4
:1002C200C1004408C00008007030900488108610F5
:1002D20087141F081F39A0389F001F141F08E33915
:1002E20008389F001330962001309C20C901CA01B2
:1002F200CB019F149F187E297F297B291E08C700E6
:10030200C8014708C9070318CA0A4808CA070130C2
:10031200FF007F08CB0740304B02031C9129922932
:100322007A2906300310CA0CC90CFF3E031D93291B
:10033200303091202E3091204A08C1004908C00077
:100342002730C2000030C300C2204108CD0040085F
:10035200CC001030C0002730C1004D08C3004C084B
:10036200C200E7204108CD004008CC00E830C000C0
:100372000330C1004D08C3004C08C20021214008CF
:10038200303E9120E830C0000330C1004D08C30068
:100392004C08C200E7204108CD004008CC00643080
:1003A200C0000030C1004D08C3004C08C20021212A
:1003B2004008303E91206430C0000030C1004D083A
:1003C200C3004C08C200E7204108CD004008CC0021
:1003D2000A30C0000030C1004D08C3004C08C20002
:1003E20021214008303E91200A309120073096208A
:0E03F20077290028CE01CF01D00183016529B3
:02400E00EE3F83
:00000001FF
