:10000000FB2900308A000408840A8207003478340F
:100010002D3449344D34553433342D345334413434
:100020002D344C3469346734683474342034763475
:0E00300031342E3430342E3432340A3400345D
:10013200C0004008D000B4200800C0004008B00051
:10014200630030100800AB28410884000120992088
:100152000130C107410884000120003A031DB22882
:10016200B328A5280800D0000A30CF008710C02885
:100172000708FD395018023887000314D00C0830E4
:10018200CE00CE0BC228CF0BB9280800C401C5018E
:10019200401CCC28CD28D3284208C4070318C50A1E
:1001A2004308C50701300310C20DC30DFF3E031DF6
:1001B200D42801300310C10CC00CFF3E031DDB2804
:1001C20040084104031DE628E728C9284508C10064
:1001D2004408C0000800400841040319F128F2282D
:1001E2001F290130C400FE2801300310C00DC10DCB
:1001F200FF3E031DF6280130C407C11F0129022951
:10020200F52841084302031D082940084202031C45
:100212000B290C2912294008C2024108031CC303FE
:10022200C30201300310C10CC00CFF3E031D132991
:100232000130C402031D1E291F2902294308C100DF
:100242004208C0000800C401C50140084104031966
:100252002B292C2961290130C600382901300310CD
:10026200C00DC10DFF3E031D30290130C607C11F5D
:100272003B293C292F2901300310C40DC50DFF3E37
:10028200031D3D2941084302031D4929400842023A
:10029200031C4C294D2954294008C2024108031C61
:1002A200C303C302441401300310C10CC00CFF3E4F
:1002B200031D55290130C602031D602961293C290D
:1002C2004508C1004408C00008007030900488103E
:1002D200861087141F081F39A0389F001F141F089B
:1002E200E33908389F0013309E200130C100A4205A
:1002F200C901CA01CB019F149F18802981297D2938
:100302001E08C700C8014708C9070318CA0A4808D7
:10031200CA070130CB0740304B02031C91299229B6
:100322007C2906300310CA0CC90CFF3E031D932919
:10033200303099202E3099204A08C1004908C00067
:100342002730C2000030C300C7204108CD0040085A
:10035200CC001030C0002730C1004D08C3004C084B
:10036200C200EC204108CD004008CC00E830C000BB
:100372000330C1004D08C3004C08C20024214008CC
:10038200303E9920E830C0000330C1004D08C30060
:100392004C08C200EC204108CD004008CC0064307B
:1003A200C0000030C1004D08C3004C08C200242127
:1003B2004008303E99206430C0000030C1004D0832
:1003C200C3004C08C200EC204108CD004008CC001C
:1003D2000A30C0000030C1004D08C3004C08C20002
:1003E20024214008303E99200A30992007309E206F
:0E03F20079290028CE01CF01D00183016629B0
:02400E00EE3F83
:00000001FF
